:020000040800F2
:10000000A0060020ED1200089D0200089F020008D3
:10001000A3020008A7020008AB02000800000000CD
:10002000000000000000000000000000AF02000817
:10003000B102000800000000B3020008B502000889
:100040000713000807130008071300080713000828
:100050000713000807130008071300080713000818
:100060000713000807130008071300080713000808
:1000700007130008071300080713000807130008F8
:1000800007130008071300080713000807130008E8
:1000900007130008071300080713000807130008D8
:1000A00007130008071300080713000807130008C8
:1000B00007130008071300080713000807130008B8
:1000C00007130008071300080713000807130008A8
:1000D0000713000807130008071300080713000898
:1000E0000713000807130008071300080713000888
:1000F0000713000807130008071300080713000878
:100100000713000807130008071300080713000867
:100110000713000807130008071300080713000857
:100120000713000807130008071300080713000847
:1001300000F002F800F03AF80AA090E8000C8244BF
:100140008344AAF10107DA4501D100F02FF8AFF29C
:10015000090EBAE80F0013F0010F18BFFB1A43F0A5
:1001600001031847341D0000541D0000103A24BF3D
:1001700078C878C1FAD8520724BF30C830C144BF0C
:1001800004680C607047000000230024002500264E
:10019000103A28BF78C1FBD8520728BF30C148BFEA
:1001A0000B6070471FB51FBD10B510BD01F035FEC7
:1001B0001146FFF7F7FF00F008F801F053FE03B413
:1001C000FFF7F2FF03BC01F05BFE08B500BF00BF04
:1001D00001F002F801F06AF800F058FE00BF00F0EC
:1001E000EFFE0028FBD100F08FFF56E0684600F0DC
:1001F00062FF9DF80200012808D1002404E00420D9
:1002000000F06FF9601CC4B20E2CF8DB9DF8020000
:10021000022808D1002404E0042000F01CFA601C2D
:10022000C4B20E2CF8DB9DF80200032808D100248C
:1002300004E0042000F0C9FA601CC4B20E2CF8DB04
:100240009DF80200042808D1002404E0042000F0F6
:1002500079FB601CC4B20E2CF8DB9DF80200052867
:1002600008D1002404E0042000F0D6FC601CC4B2D5
:100270000E2CF8DB9DF80200062808D1002404E0CB
:10028000042000F013FC601CC4B20E2CF8DB9DF8B7
:1002900002000A2801D100F0FFF8A7E7704700BF6D
:1002A000FEE700BFFEE700BFFEE700BFFEE77047C6
:1002B00070477047704700000CB500200190009017
:1002C0006C48006840F480306A49086000BF6948A3
:1002D000006800F4003000900198401C01900098E4
:1002E00018B90198B0F5A06FF1D16248006800F428
:1002F000003010B10120009001E000200090009833
:10030000012843D15C48006840F010005A49086059
:100310000846006820F0030008600846006840F0C6
:1003200002000860534840685249486008464068E7
:1003300048600846406840F480604860084640686D
:1003400020F47C1048600846406840F4E81048609B
:100350000846006840F08070086000BF45480068AB
:1003600000F000700028F9D04248406820F00300F7
:10037000404948600846406840F00200486000BFBD
:100380003C48406800F00C000828F9D10CBD10B5BD
:10039000FFF792FF10BD10B53648006840F001002D
:1003A000344908600846406834490840314948608B
:1003B00008460068324908402E490860084600682F
:1003C00020F4802008600846406820F4FE00486061
:1003D0004FF41F008860FFF7DAFF4FF000602949F3
:1003E000086010BD10B5002100200022214B5B6881
:1003F00003F00C0121B1042906D0082928D107E017
:10040000214B224C236027E01F4B204C236023E02C
:10041000184B5B6803F47010164B5B6803F4803272
:10042000022303EB904022B9194B4343174C23603E
:100430000DE0104B5B6803F4003323B1144B4343CE
:10044000124C236003E0104B4343104C236003E045
:100450000D4B0E4C236000BF00BF064B5B68C3F31F
:1004600003130C4CE15C094B1B68CB40074C236029
:1004700010BD000000100240002002400000FFF804
:10048000FFFFF6FE08ED00E000127A0000000020F9
:1004900000093D00040000200020FE490860FE49DC
:1004A000C1F88401FB4918310860091D0860091D65
:1004B0000860091D0860091D0860091D0860091D04
:1004C0000860091D0860091D0860091D0860F349DE
:1004D0000860091D0860091D0860F149C1F8A40100
:1004E000704710B504460120EA4908600020EA4937
:1004F000C1F88401E74918310860091D086001202E
:10050000091D08600020091D0860091D0860091DFB
:1005100008600120091D08600020091D0860091DF0
:100520000860091D08600120DC4908600020091DE1
:100530000860091D0860DA49C1F8A401204600F0EE
:1005400088FE0020D3490860091D08600120D149B8
:10055000183108600020091D0860091D0860091D88
:1005600008600120091D08600020091D0860091DA0
:100570000860091D08600120091D08600020091D90
:100580000860C6490860091D08600120091D08604F
:100590000020C349C1F8A401204600F05AFE002003
:1005A000BC4908600120091D08600020B9491831C4
:1005B0000860091D0860091D08600120091D086008
:1005C0000020091D0860091D0860091D0860012040
:1005D000091D08600020091D0860091D0860AF4959
:1005E00008600120091D08600020091D0860AC4951
:1005F000C1F8A401204600F02CFE0020A5490860A7
:10060000091D0860A349183108600120091D086010
:100610000020091D0860091D0860091D08600120EF
:10062000091D08600020091D0860091D0860091DDA
:1006300008600120091D0860002098490860091D14
:100640000860091D086001209549C1F8A4012046F1
:1006500000F0FFFD10BD10B5044600208D49086074
:100660008D49C1F884018B49183108600120091DAA
:1006700008600020091D0860091D0860091D086048
:100680000120091D08600020091D0860091D08607F
:10069000091D08600120091D086000207F490860CD
:1006A000091D0860091D086001207D49C1F8A401E9
:1006B000204600F0CEFD0020764908600120091D8B
:1006C00008600020734918310860091D0860091D81
:1006D00008600120091D08600020091D0860091D2F
:1006E0000860091D08600120091D08600020091D1F
:1006F0000860091D0860694908600120091D08603B
:100700000020091D08606649C1F8A401204600F0D8
:10071000A0FD00205F490860091D086001205D49B7
:10072000183108600020091D0860091D0860091DB6
:1007300008600120091D08600020091D0860091DCE
:100740000860091D08600120091D08600020091DBE
:10075000086052490860091D08600120091D0860F1
:1007600000204F49C1F8A401204600F072FD01208D
:10077000484908600020091D086046491831086092
:10078000091D08600120091D08600020091D08607E
:10079000091D0860091D08600120091D086000206E
:1007A000091D0860091D0860091D086001203B49FA
:1007B00008600020091D0860091D08603849C1F85B
:1007C000A401204600F045FD10BD10B504460120EF
:1007D0003049086000203049C1F884012D491831A2
:1007E0000860091D0860091D0860091D0860091DD1
:1007F00008600120091D0860091D08600020091D0E
:100800000860091D0860091D086024490860091D69
:100810000860091D086001202149C1F8A401204693
:1008200000F017FD00201B490860091D0860012029
:100830001849183108600020091D0860091D08606A
:100840000120091D08600020091D0860091D0860BD
:10085000091D0860091D08600120091D08600020AD
:10086000091D08600D4908600120091D086000206D
:10087000091D08600A49C1F8A401204600F0E9FCFE
:100880000020044908600120091D0860002001497A
:10089000183107E0808121420080214298012242E4
:1008A000000022420860091D0860091D0860091D3A
:1008B00008600120091D08600020091D0860091D4D
:1008C00008600120091D08600020091D0860091D3D
:1008D0000860FE490860091D08600120091D0860C4
:1008E0000020FB49C1F8A401204600F0B2FC002022
:1008F000F8490860091D0860F649183108600120B0
:10090000091D0860091D08600020091D0860091DF7
:100910000860091D0860091D0860091D0860091D9F
:1009200008600120091D0860E84908600020091DD1
:100930000860091D0860E649C1F8A401204600F0DE
:1009400088FC10BD10B504460020E2490860E24969
:10095000C1F88401DF49183108600120091D0860D1
:10096000091D08600020091D0860091D0860091D97
:100970000860091D0860091D0860091D0860012044
:10098000091D0860D14908600020091D0860091D83
:100990000860CF49C1F8A401204600F05AFC0020AD
:1009A000CC4908600120091D08600020C9491831A0
:1009B0000860091D0860091D0860091D0860012004
:1009C000091D08600020091D0860091D086001203C
:1009D000091D08600020091D0860091D0860BB4949
:1009E0000860091D08600120091D08600020B84941
:1009F000C1F8A401204600F02CFC0020B549086095
:100A0000091D08600120B349183108600020091D44
:100A10000860091D08600120091D08600020091DEB
:100A20000860091D0860091D0860091D0860012093
:100A3000091D08600020091D0860A4490860012004
:100A4000091D08600020091D0860A149C1F8A40122
:100A5000204600F0FEFB01209E4908600020091D91
:100A600008609C4918310860091D0860091D08606C
:100A7000091D0860091D08600120091D0860091D85
:100A800008600020091D0860091D0860091D086034
:100A90008E490860091D0860091D086001208C4905
:100AA000C1F8A401204600F0D4FB10BD10B50446E7
:100AB00001208849086000208749C1F884018549E0
:100AC00018310860091D0860091D0860091D0860CB
:100AD000091D08600120091D08600020091D08602B
:100AE000091D0860091D08600120091D086077497B
:100AF00008600020091D0860091D08607449C1F8DC
:100B0000A401204600F0A5FB002072490860091DE1
:100B1000086001206F49183108600020091D086035
:100B2000091D08600120091D08600020091D0860DA
:100B3000091D0860091D08600120091D08600020CA
:100B4000091D0860091D086060490860091D0860EA
:100B50000120091D086000205D49C1F8A40120465C
:100B600000F077FB00205B4908600120091D086048
:100B70000020584918310860091D0860091D0860E7
:100B8000091D08600120091D08600020091D08607A
:100B9000091D0860091D08600120091D086000206A
:100BA000091D0860494908600120091D08600020EE
:100BB000091D08604649C1F8A401204600F049FB20
:100BC000002044490860091D086042491831086046
:100BD0000120091D0860091D08600020091D08602A
:100BE000091D0860091D08600120091D086000201A
:100BF000091D0860091D0860091D08603349086067
:100C0000091D0860091D086001203149C1F8A401CF
:100C1000204600F01EFB10BD10B5044600202D49F3
:100C200008602D49C1F884012A4918310860012063
:100C3000091D0860091D08600020091D0860091DC4
:100C40000860091D08600120091D08600020091DB9
:100C50000860091D0860091D08601C490860091D1D
:100C60000860091D086001201949C1F8A401204647
:100C700000F0EFFA0020174908600120091D086004
:100C80000020144918310860091D0860091D08601A
:100C9000091D08600120091D08600020091D086069
:100CA000091D0860091D08600120091D0860002059
:100CB000091D0860054908600120091D0860002021
:100CC000091D08600249C1F8A40107E09801224209
:100CD000000022428081214200802142204600F013
:100CE000B8FA00202C490860091D086001202A4933
:100CF000183108600020091D0860091D08600120E6
:100D0000091D08600020091D0860091D0860091DF3
:100D100008600120091D08600020091D0860091DE8
:100D200008601E490860091D08600120091D08604F
:100D300000201B49C1F8A401204600F08AFA0120D6
:100D4000154908600020091D086013491831086022
:100D5000091D0860091D0860091D0860091D08605B
:100D60000120091D08600020091D0860091D086098
:100D7000091D08600120091D08600849086000205D
:100D8000091D0860091D08600549C1F8A401204635
:100D900000F05FFA10BD00008081214298012242DC
:100DA0000000224270B50546002405E0601CC4B274
:100DB000C82C01DD002070BD0221314800F0F3FF96
:100DC0000028F3D029462E4800F09AFF002405E0C1
:100DD000601CC4B2C82C01DD0020ECE701212848CA
:100DE00000F0E1FF0028F3D0254800F08BFFC0B2EF
:100DF000E1E708B5012141F2040000F0B3FDE02075
:100E0000ADF8000018208DF8030003208DF80200D3
:100E100069461C4800F0EAFAE0211A4800F093FB0A
:100E20000020194908804FF4827048800020888093
:100E30000220C8800120088140024881302088813A
:100E40000020C881072008820D4800F083FE0121A0
:100E50000B4800F024FFFF20FFF7A4FF08BD08495E
:100E600009884FF6C7721140054A1180114609885A
:100E7000014311801146098841F0400111807047FB
:100E800000300140000801402C00002000B587B070
:100E90000121142000F066FD1C20ADF81800102080
:100EA0008DF81B0003208DF81A0006A9BF4800F03A
:100EB0009DFA1020ADF818008DF81B0003208DF866
:100EC0001A0006A9BA4800F091FA1021B84800F0BB
:100ED0003AFB0220ADF8180048208DF81B000320D3
:100EE0008DF81A0006A9B14800F080FA1E21AF481B
:100EF00000F029FBFFF77DFF0021AE4800F0CFFE98
:100F00000020ADF804004FF48270ADF80600002018
:100F1000ADF80800ADF80A00ADF80C004FF4007011
:100F2000ADF80E003020ADF810000020ADF8120032
:100F30000720ADF8140001A99E4800F00BFE002028
:100F40009D49086001209D49C1F8900107B000BD8E
:100F50002DE9F04107460D461646002098490860E5
:100F60003846FFF71FFF8046002405E0FF20FFF70B
:100F700019FF2855601CC4B2B442F7DB0120904928
:100F800008604046BDE8F0812DE9F04107460C4677
:100F9000154600208A4908603846FFF703FF80465F
:100FA000002605E014F8010BFFF7FCFE701CC6B22A
:100FB000AE42F7DB0120824908604046BDE8F0817F
:100FC0001CB580A103C9CDE900011020FFF747FF40
:100FD000052269463020FFF7D7FF05226946102019
:100FE000FFF7B6FF002406E01DF80400A52800D096
:100FF00003E0601CC4B2052CF6DB00BF052C01D059
:1010000001201CBD0020FCE770B505460C460026FB
:1010100000206B4908602846FFF7C4FE06462046BC
:10102000FFF7C0FE01206549C1F89001304670BD50
:1010300070B5044600250020614908602046FFF78E
:10104000B1FEFF20FFF7AEFE054601205B49C1F867
:101050009001284670BD70B5054600241020FFF7AA
:10106000FEFE00205449086020222946A020FFF7F8
:101070008BFF01205549C1F8900100BF4E488C38C4
:1010800000680028FAD10720FFF7D2FF0446214666
:101090002720FFF7B9FF04F0100028B1FF21E1205D
:1010A000FFF7B2FF102070BD04F0200008B120202F
:1010B000F9E7FF20F7E770B50446002501203E4917
:1010C000086000BF3C488C3800680028FAD13A49D3
:1010D00008601020FFF7C3FE0720FFF7A9FF0546B1
:1010E00029462720FFF790FF05F0400050B120224D
:1010F00021466120FFF72CFFFF21E220FFF784FF4C
:10110000002070BD0120FCE710B500202A490860CE
:1011100005222F492A20FFF737FF01212120FFF761
:1011200073FF01212220FFF76FFF28212520FFF701
:101130006BFF20213120FFF767FF0F212620FFF7EB
:1011400063FF0F212020FFF75FFF01201F49C1F837
:10115000900110BD10B500201749086005221D49F7
:101160003020FFF711FF052219492A20FFF70CFF55
:1011700001212120FFF748FF01212220FFF744FF32
:101180001A212420FFF740FF28212520FFF73CFFEC
:101190000F212620FFF738FF0E212020FFF734FF14
:1011A00001200A49C1F8900110BD0000000801406B
:1011B0000010014000300140900121420000224215
:1011C00090012242A5A5A5A5A5000000000021428E
:1011D000931E00088E1E000810B56FF0040000F08A
:1011E00074FC2E4800682E49B0FBF1F02D490870C0
:1011F0000846007800EB4001C1EBC0104FF6FF71CC
:1012000001EAC0002849088010BD0146254A12782D
:101210004A434FF0E0235A6100229A611A4612694C
:1012200042F001021A6100BF4FF0E022106900F0A5
:1012300001021AB100F48032002AF5D04FF0E0220A
:10124000126922F001024FF0E0231A6100229A6134
:1012500070470146144A12884A434FF0E0235A610E
:1012600000229A611A46126942F001021A6100BF17
:101270004FF0E022106900F001021AB100F4803250
:10128000002AF5D04FF0E022126922F001024FF05F
:10129000E0231A6100229A617047000000000020DC
:1012A00000127A00140000201600002008B5012169
:1012B000182000F057FB4FF6FF70ADF8000010202B
:1012C0008DF8030003208DF802006946054800F000
:1012D0008DF84FF47070ADF800006946024800F0D8
:1012E00085F808BD000C0140001001400948804706
:1012F00009480047FEE7FEE7FEE7FEE7FEE7FEE7F8
:10130000FEE7FEE7FEE7FEE704480549054A064B0F
:10131000704700009703000831010008A00000207A
:10132000A0060020A0020020A002002010B5044664
:10133000CC48844208D10121042000F02DFB00217B
:10134000042000F029FB46E0C748844208D101216F
:10135000082000F021FB0021082000F01DFB3AE0EE
:10136000C248844208D10121102000F015FB002161
:10137000102000F011FB2EE0BD48844208D101216D
:10138000202000F009FB0021202000F005FB22E0D6
:10139000B848844208D10121402000F0FDFA002124
:1013A000402000F0F9FA16E0B348844208D1012148
:1013B000802000F0F1FA0021802000F0EDFA0AE030
:1013C000AE48844207D10121801500F0E5FA0021E2
:1013D000A01500F0E1FA10BD10B50121084600F09B
:1013E000DBFA0021012000F0D7FA10BD2DE9F04111
:1013F000024600250026002000230024002791F843
:1014000003C00CF00F0591F803C00CF0100CBCF1F8
:10141000000F03D091F802C04CEA050591F800C016
:10142000BCF1000F31D0146800202BE04FF0010C0C
:101430000CFA00F3B1F800C00CEA03069E4220D17A
:1014400083004FF00F0C0CFA03F7BC4305FA03FCC2
:101450004CEA040491F803C0BCF1280F06D14FF008
:10146000010C0CFA00FCC2F814C00AE091F803C0A9
:10147000BCF1480F05D14FF0010C0CFA00FCC2F88A
:1014800010C0401C0828D1D31460B1F800C0BCF1D2
:10149000FF0F34DD546800202EE000F1080C4FF0FF
:1014A000010808FA0CF3B1F800C00CEA03069E42EA
:1014B00021D183004FF00F0C0CFA03F7BC4305FA5F
:1014C00003FC4CEA040491F803C0BCF1280F05D1D9
:1014D00000F1080C08FA0CF8C2F8148091F803C067
:1014E000BCF1480F07D100F1080C4FF0010808FAD1
:1014F0000CF8C2F81080401C0828CED35460BDE818
:10150000F0814FF6FF710180022181700421C170CA
:1015100070470246002093680B400BB1012000E0A9
:10152000002070470146886880B27047024600205C
:10153000D3680B400BB1012000E00020704701464A
:10154000C86880B2704701617047416170470AB155
:10155000016100E041617047C16070474FF4803223
:101560000A438261816182618269826970470246B1
:101570000020434B18684FF68073184040EA021071
:1015800008433F4B186070473E49C8617047F0B54B
:101590000A46002300240021002500F00046B6F191
:1015A000004F02D1364EF16901E0354E7168C0F34B
:1015B000034583B200F44016B6F5401F08D121F070
:1015C00070612F4E766826F070662D4F7E6012E0B7
:1015D00000F48016B6F5801F06D1032606FA05F43E
:1015E000A14341F0706106E0460D360103FA06F6AC
:1015F000B14341F0706122B1460D360103FA06F69F
:10160000314300F00046B6F1004F02D11C4EF161AB
:1016100001E01B4E7160F0BD30B500228B071C0F3E
:101620000F2303FA04F2164B08338C1053F82430BE
:101630009343134C08348D1044F8253023468C1006
:1016400053F824308C07240F00FA04F423430C4C85
:1016500008348D1044F8253030BD0A49DC3108606B
:101660007047000000080140000C014000100140DC
:101670000014014000180140001C014000200140FE
:101680000000014000002042DF48006840F00100F7
:10169000DD49086008464068DC490840DA4948608E
:1016A00008460068DA490840D749086008460068DB
:1016B00020F4802008600846406820F4FE0048605E
:1016C0004FF41F0088607047CF49096821F48031CA
:1016D000CD4A11601146096821F480211160B0F5EE
:1016E000803F03D0B0F5802F0ED106E0C6490968CF
:1016F00041F48031C44A116007E0C349096841F4EC
:10170000A021C14A116000E000BF00BF704710B5C2
:1017100001460022002300204A11012A02D1BA4CBE
:10172000236806E0022A02D1B74C236A01E0B64CD6
:10173000636A01F01F02012494401C400CB1012097
:1017400000E0002010BD38B50020009000240025E6
:1017500000BF3120FFF7DBFF05460098401C0090DA
:101760000098B0F5A06F01D0002DF2D03120FFF726
:10177000CEFF08B1012400E00024204638BD014618
:101780000020A14A106820F0F80040EAC100106073
:101790007047A04908607047024600209A4B58687D
:1017A00020F47C1042EA01031843974B58607047BD
:1017B00098490866704701460020934A506820F017
:1017C00003000843506070478F48406800F00C00E9
:1017D0007047014600208C4A506820F0F000084312
:1017E0005060704701460020874A506820F4E0604E
:1017F00008435060704701460020834A506820F437
:10180000605040EAC1005060704729B17E4A527A68
:1018100002437D4B5A7204E07B4A527A82437A4BF0
:101820005A7270477B49D8310860704701460020E2
:10183000754A506820F440400843506070470021CA
:10184000714A20321170704A82F82010012802D0AB
:1018500004280AD104E001216B4A2032117005E00E
:101860000521694A2032117000E000BF00BF7047B7
:101870006949086070476449096A0143624A116214
:101880007047654944390860704730B5002100222F
:10189000002400235C4D6D6805F00C0121B1042982
:1018A00005D0082923D105E05C4D056022E05B4DA1
:1018B00005601FE0544D6D6805F47012524D6D685F
:1018C00005F48034022505EB92421CB9544D554372
:1018D00005600BE04C4D6D6805F400351DB1504DB1
:1018E0005543056002E04D4D5543056002E04B4D08
:1018F000056000BF00BF444D6D6805F0F0010909A7
:10190000484D6B5C0568DD4045603F4D6D6805F4F2
:10191000E061090A434D6B5C4568DD4085603A4DE6
:101920006D6805F46051C90A3E4D6B5C4568DD4049
:10193000C560354D6D6805F44041890B3A4D6B5CCF
:10194000C568B5FBF3F5056130BD29B12E4A526972
:1019500002432D4B5A6104E02B4A526982432A4BC1
:101960005A61704729B1284A92690243264B9A610D
:1019700004E0254A92698243234B9A61704729B15A
:10198000214AD2690243204BDA6104E01E4AD2693F
:1019900082431D4BDA61704729B11B4AD26802436A
:1019A000194BDA6004E0184AD2688243164BDA60B9
:1019B000704729B1144A12690243134B1A6104E0BB
:1019C000114A12698243104B1A617047124940391B
:1019D000086070470F49C86470470B49C871704769
:1019E0000948406A40F080700749486270470146E4
:1019F0000020054A92680A400AB1012000E0002058
:101A00007047014988727047001002400000FFF8DB
:101A1000FFFFF6FE000042428004424200127A00BC
:101A200000093D0018000020280000203149014332
:101A3000314A1160704770B5002100230F22C4782D
:101A400004B32D4C246804F4E064C4F5E064210A76
:101A5000C1F10403CA40447804FA03F184781440C5
:101A600021430901254C0678A155047804F01F058F
:101A70000124AC4005786D11AD0005F1E025C5F8F5
:101A8000004109E0047804F01F050124AC401C4D1E
:101A90000678761145F8264070BD1A4A0A4002437E
:101AA000154B1B1F1A60704739B1134A121D12687B
:101AB0000243114B1B1D1A6006E00F4A121D1268EB
:101AC00082430D4B1B1D1A607047042808D14FF04C
:101AD000E021096941F004014FF0E022116107E0C3
:101AE0004FF0E021096921F004014FF0E02211617B
:101AF000704700000000FA050CED00E000E400E093
:101B000080E100E080FFFF1F10B50446BE4884421C
:101B100008D101218014FFF73FFF0021A014FFF737
:101B20003BFF16E0B948844208D101210014FFF7B9
:101B300040FF00212014FFF73CFF0AE0B448844234
:101B400007D10121C013FFF734FF0021E013FFF795
:101B500030FF10BD10B50022028802F441520B88FC
:101B60004C8823438C882343CC8823430C8923430C
:101B70004C8923438C892343CC8923431A43028015
:101B8000838B4FF2FF74234083830B8A038210BD43
:101B90002DE9F04F85B005460C464FF000090227AD
:101BA0004FF000084FF0010B0026B246A88B4FF211
:101BB00040010840A88302202884B5F81C90A06842
:101BC000022801D100BF38E0A08810B94FF0010B06
:101BD00001E04FF0020B8D48854200D100E000BFCC
:101BE0006846FFF752FEDDF800A0E088B0F5007F00
:101BF0000AD14FEA1A2000EB80004000A168B0FB38
:101C0000F1F0401D86B20BE04FEA4B10BAFBF0F04A
:101C100000EB80004000A168B0FBF1F0401D86B2EF
:101C20000A20B6FBF0F606F00108A6EB0800C0F3A8
:101C30004F074FF6FF7000EA0828022F01DBFF2F45
:101C400002DD02274FF00008E08840EA0800384330
:101C50002884A088A1890843618808432188084313
:101C600040F4006040EA0909A5F81C9005B0BDE801
:101C7000F08F0021018041808180C18001814181FC
:101C80008181C1810721018270470021018041804B
:101C90008180C1800221816000218181704721B152
:101CA000028842F04002028004E002884FF6BF73CF
:101CB0001A400280704721B1828B42F48062828395
:101CC00004E0828B4FF6FF331A408283704730B5B1
:101CD000002400230C110125A540ABB21AB1858860
:101CE0001D43858002E085889D43858030BD1AB103
:101CF00083880B43838002E083888B438380704713
:101D0000818170470146888970474FF6FF62914292
:101D100004D0028842F48072028004E002884FF608
:101D2000FF631A400280704721B1828842F00402AA
:101D3000828004E082884FF6FB731A4082807047ED
:101D400002884FF2FF731A40028002880A43028021
:101D50007047018841F480510180704721B10288A9
:101D600042F40052028004E002884DF6FF731A40EC
:101D70000280704702460020012901D0108B00E04C
:101D8000908A70470146088A7047B1F5804F04D1A8
:101D9000028842F48042028004E002884BF6FF731E
:101DA0001A40028070470246002013890B400BB195
:101DB000012000E000207047CA4302817047F0B55F
:101DC0000246002000240023002501F00F07012611
:101DD000BE40B4B20B1101269E40B3B2968806EA0B
:101DE00003051689264016B10DB1012000E0002040
:101DF000F0BD10B5002201F00F040123A3409AB2F8
:101E0000D343038110BD0000003001400038004082
:101E1000003C0040704770477047754600F02CF852
:101E2000AE4605006946534620F00700854618B0C7
:101E300020B5FFF769FABDE820404FF000064FF0EB
:101E400000074FF000084FF0000B21F00701AC46EF
:101E5000ACE8C009ACE8C009ACE8C009ACE8C0090E
:101E60008D46704710B50446AFF300802046BDE8AC
:101E70001040FEF7A4B90000004870474000002061
:101E800001491820ABBEFEE726000200704734432C
:101E90001010013443101001B81E0008000000208B
:101EA0002C0000006C010008E41E00082C0000203B
:101EB000740600008801000800A24A040000000027
:101EC00000000000010203040607080900000000EA
:101ED00000000000010203040102030406070809D0
:041EE00002040608EA
:0400000508000131BD
:00000001FF
