:020000040800F2
:10000000600800202D1300083105000833050008A2
:10001000370500083B0500083F0500080000000008
:100020000000000000000000000000004305000880
:1000300045050008000000004705000849050008C4
:100040004713000847130008471300084713000828
:100050004713000847130008471300084713000818
:100060004713000847130008471300084713000808
:1000700047130008471300084713000847130008F8
:1000800047130008471300084713000847130008E8
:1000900047130008471300084713000847130008D8
:1000A00047130008471300084713000847130008C8
:1000B00047130008471300084713000847130008B8
:1000C00047130008471300084713000847130008A8
:1000D0004713000847130008471300084713000898
:1000E0004713000847130008471300084713000888
:1000F0004713000847130008471300084713000878
:100100004713000847130008471300084713000867
:100110004713000847130008471300084713000857
:100120004713000847130008471300084713000847
:1001300000F002F800F05AF80AA090E8000C82449F
:100140008344AAF10107DA4501D100F04FF8AFF27C
:10015000090EBAE80F0013F0010F18BFFB1A43F0A5
:1001600001031847982E0000B82E00000A444FF0F3
:10017000000C10F8013B13F0070408BF10F8014B06
:100180001D1108BF10F8015B641E05D010F8016B4B
:10019000641E01F8016BF9D113F0080F1EBF10F8AF
:1001A000014BAD1C0C1B09D16D1E58BF01F801CBD2
:1001B000FAD505E014F8016B01F8016B6D1EF9D555
:1001C0009142D6D37047000000230024002500266A
:1001D000103A28BF78C1FBD8520728BF30C148BFAA
:1001E0000B6070471FB51FBD10B510BD02F05DF864
:1001F0001146FFF7F7FF00F009F802F07BF803B4AF
:10020000FFF7F2FF03BC02F083F800001CB500BF4B
:100210000024002501F020F800F01CFC00F0F1FAA9
:1002200000F0DCFC00F032FE00F082FE04E0A2A24E
:100230000021084600F087FB00F008FF0028F6D1F7
:10024000A1A20021084600F07EFB4FF47A7001F075
:1002500040F800F0D6FA9FA20021084600F073FB98
:100260004FF47A7001F035F800F0CBFA9CA200212F
:10027000084600F068FB4FF4FA6001F02AF800F03D
:10028000ACFF18E1202101A800F02DFF202808D1A3
:10029000102000909DF80620032304215A2000F02E
:1002A00010FB0821022000F062FD04460821012015
:1002B00000F046FD0546EB1705EB13731B11B42B3D
:1002C00001DB012300E00023E61704EB167636116C
:1002D0007C2E01DD012600E000263340E61704EB0A
:1002E00016763611812E01DA012600E00026334011
:1002F0003BB101208DF806007DA20421002000F012
:1003000022FBEB1705EB13731B11462B01DC0123BA
:1003100000E00023E61704EB167636117C2E01DD93
:10032000012600E000263340E61704EB167636116E
:10033000812E01DA012600E0002633403BB1022085
:100340008DF806006DA20421002000F0FCFAE317EE
:1003500004EB13731B11BE2B01DB012300E0002310
:10036000EE1705EB167636117C2E01DD012600E036
:1003700000263340EE1705EB16763611812E01DA92
:10038000012600E0002633403BB103208DF8060033
:100390005CA20421002000F0D6FAE31704EB1373EB
:1003A0001B11462B01DC012300E00023EE1705EBB7
:1003B000167636117C2E01DD012600E00026334042
:1003C000EE1705EB16763611812E01DA012600E0D4
:1003D000002633403BB104208DF806004BA20421D7
:1003E000002000F0B0FAE21704EB12721211812A19
:1003F00001DB012200E00022EB1705EB13731B1158
:100400008C2B01DB012300E000231A403AB10520C8
:100410008DF806003FA20421002000F094FAE217B4
:1004200004EB12721211502A01DC012200E00022BA
:10043000EB1705EB13731B11BE2B01DB012300E04F
:1004400000231A403AB106208DF8060033A2042199
:10045000002000F078FAEE1705EB167636118C2E98
:1004600001DA012600E00026EF1705EB17773F11B0
:10047000642F01DD012700E000273E40E71704EB71
:1004800017773F11642F01DD012700E000273E4070
:10049000E71704EB17773F118C2F01DA012700E0F3
:1004A00000273E403EB10A208DF806001DA204211F
:1004B000002000F048FAE5E64E524632344C303423
:1004C000204552524F5200004C4F4144494E472E56
:1004D0002E2E2E004E524632344C3034204F4B00DC
:1004E000535441525420574F524B494E472100001C
:1004F000474F204148454144000000004241434BE2
:10050000000000004C454654000000005249474896
:10051000540000004C205455524E000052205455B7
:10052000524E00002020202020202020200000000B
:10053000704700BFFEE700BFFEE700BFFEE700BF59
:10054000FEE7704770477047704700000CB5002009
:10055000019000906C48006840F480306A4908605F
:1005600000BF6948006800F4003000900198401C0A
:100570000190009818B90198B0F5A06FF1D16248C8
:10058000006800F4003010B10120009001E000206C
:1005900000900098012843D15C48006840F01000AA
:1005A0005A4908600846006820F0030008600846C1
:1005B000006840F0020008605348406852494860B3
:1005C0000846406848600846406840F480604860DB
:1005D0000846406820F47C1048600846406840F4B3
:1005E000E81048600846006840F08070086000BF6E
:1005F0004548006800F000700028F9D04248406883
:1006000020F00300404948600846406840F002007E
:10061000486000BF3C48406800F00C000828F9D151
:100620000CBD10B5FFF792FF10BD10B5364800683D
:1006300040F00100344908600846406834490840E9
:100640003149486008460068324908402E49086030
:100650000846006820F4802008600846406820F4BE
:10066000FE0048604FF41F008860FFF7DAFF4FF08C
:1006700000602949086010BD10B50021002000224B
:10068000214B5B6803F00C0121B1042906D0082935
:1006900028D107E0214B224C236027E01F4B204C40
:1006A000236023E0184B5B6803F47010164B5B6803
:1006B00003F48032022303EB904022B9194B4343E9
:1006C000174C23600DE0104B5B6803F4003323B13B
:1006D000144B4343124C236003E0104B4343104C34
:1006E000236003E00D4B0E4C236000BF00BF064BA0
:1006F0005B68C3F303130C4CE15C094B1B68CB40F4
:10070000074C236010BD0000001002400020024092
:100710000000FFF8FFFFF6FE08ED00E000127A008F
:100720000000002000093D000400002070B50446D0
:100730000E4626B10421FE4800F093FF03E0042199
:10074000FB4800F090FF0821F94800F08CFF0025DD
:1007500019E04FF40051F64800F085FF04F08000E6
:1007600020B10121F24800F07CFF03E00121F048B4
:1007700000F079FF4FF40051ED4800F072FF600681
:10078000040E681CC5B2082DE3DB0821E84800F020
:1007900068FF0421E64800F064FF70BD70B50446B0
:1007A0000D4605F1B001C8B20021FFF7BFFF1021CF
:1007B00041EA14100021FFF7B9FF04F00F0141F0E6
:1007C00001000021FFF7B2FF70BD10B500218D20A0
:1007D000FFF7ACFF00211420FFF7A8FF0021AF2096
:1007E000FFF7A4FF10BD10B500218D20FFF79EFF7D
:1007F00000211020FFF79AFF0021AE20FFF796FF9F
:1008000010BD70B5002419E004F1B001C8B2002198
:10081000FFF78CFF00210846FFF788FF002110201A
:10082000FFF784FF002505E001210020FFF77EFF90
:10083000681CC5B2802DF7DB601CC4B2082CE3DB5A
:1008400070BD2DE9F04107460E4690460025002474
:10085000A8F12000C5B27F2F02DD0027B01CC6B270
:1008600031463846FFF79AFF002408E004EB0511F3
:10087000B04A505C0121FFF759FF601CC4B2082C3C
:10088000F4DB701CC1B23846FFF788FF002409E092
:1008900004EB05110831A74A505C0121FFF746FF20
:1008A000601CC4B2082CF3DBBDE8F08110B5024631
:1008B000012000E050430B1EA1F10104E1B2F9D187
:1008C00010BD2DE9FF5F074691461D460E9E4FF075
:1008D000000A002433E0281B401EC1B20A20FFF7A3
:1008E000E5FFB9FBF0F00A21B0FBF1F201FB1208C1
:1008F000BAF1000F13D1681EA04210DDB8F1000F4D
:100900000BD1B34606EBDB71491001FB0471C8B291
:1009100020220199FFF795FF0FE04FF0010AB3463F
:1009200006EBDB71491001FB0471C8B208F130011C
:10093000CAB20199FFF785FF00BF601CC4B2AC4288
:10094000C9DBBDE8FF9F2DE9F04104460F4615467F
:1009500000260EE0AA5D39462046FFF772FF04F13B
:100960000800C4B2782C02DD0024B81CC7B2701C89
:10097000C6B2A85D0028EDD1BDE8F0812DE9F041B7
:1009800080460E461546002731464046FFF706FFD3
:1009900000240AE0684A02EB8511085D0121FFF797
:1009A000C5FE781CC7B2601CC4B2102CF2DB701CF0
:1009B000C1B24046FFF7F2FE00240CE06900491C7A
:1009C0005D4A02EB4111085D0121FFF7AFFE781C83
:1009D000C7B2601CC4B2102CF0DBBDE8F0812DE979
:1009E000F05F06460F4690461C46DDF828A04FF003
:1009F000000BE11704EB5171C910A4EBC10131B92F
:100A00002046E11704EB5171C1F3C70506E020460B
:100A1000E11704EB5171C910491CCDB23D4615E0F8
:100A200029463046FFF7BAFEB1460BE059460BF1B6
:100A3000010B1AF801000121FFF778FE09F101000E
:100A400000F0FF09C145F1DB681CC5B2A542E7DB38
:100A5000BDE8F09F08B50121042001F011F8012044
:100A6000ADF8000010208DF8030003208DF802007F
:100A70006946324800F048FD0121304800F0F1FDA0
:100A80000121102000F0FCFF42F20F00ADF8000041
:100A900010208DF8030003208DF8020069462448D9
:100AA00000F032FD42F20F01214800F0DAFD022190
:100AB0001F4800F0D6FD642000F00BFC02211C480A
:100AC00000F0D1FDC82000F004FC0221184800F01D
:100AD000C8FD0021AE20FFF729FE00210846FFF7E0
:100AE00025FE00211020FFF721FE00214020FFF706
:100AF0001DFE00218120FFF719FE0021CF20FFF706
:100B000015FE0021A120FFF711FE0021C820FFF7EC
:100B10000DFE0021A620FFF709FE0021A820FFF707
:100B200005FE00213F20FFF701FE0021D32007E052
:100B300000100140002A00081400002000080140B5
:100B4000FFF7F4FD00210846FFF7F0FD0021D52056
:100B5000FFF7ECFD00218020FFF7E8FD0021D92000
:100B6000FFF7E4FD0021F120FFF7E0FD0021DA208E
:100B7000FFF7DCFD00211220FFF7D8FD0021DB206C
:100B8000FFF7D4FD00214020FFF7D0FD00212020F9
:100B9000FFF7CCFD00210220FFF7C8FD00218D20CA
:100BA000FFF7C4FD00211420FFF7C0FD0021A420A1
:100BB000FFF7BCFD0021A620FFF7B8FD0021AF2004
:100BC000FFF7B4FD0021AF20FFF7B0FDFFF719FEDE
:100BD00000210846FFF7E2FD08BD000000B587B020
:100BE0000121042000F04CFF0121480200F048FFE1
:100BF0000121880200F044FF00208DF81B00022034
:100C0000ADF8180003208DF81A0006A9864800F0F8
:100C10007BFC00208DF81B000420ADF81800032099
:100C20008DF81A0006A9804800F06EFC4FF40040D1
:100C300000F08AFE7D4800F087FF7D4800F084FFC9
:100C400000208DF8090004904FF4602003900020EC
:100C5000019001208DF8140000208DF8080001A9F2
:100C6000724800F098FF00208DF8090004904FF4BE
:100C7000602003900020019001208DF814000020D6
:100C80008DF8080001A96A4800F085FF0121674836
:100C900000F0ADFF0121664800F0A9FF634800F0B5
:100CA000C8FF00BF614800F0C9FF0028FAD15F48C3
:100CB00000F0CEFF00BF5D4800F0CFFF0028FAD162
:100CC0005B4800F0B6FF00BF594800F0B7FF0028AE
:100CD000FAD1574800F0BCFF00BF554800F0BDFFF7
:100CE0000028FAD107B000BD10B504460723012241
:100CF00021464E4800F0E7FF01214C4800F0B7FFC5
:100D000000BF4A4800F0BEFF0028FAD1474801F072
:100D100041F810BD10B5044607230122214644487E
:100D200000F0D1FF0121424800F0A1FF00BF404880
:100D300000F0A8FF0028FAD13D4801F02BF810BDC3
:100D40002DE9F04107460C460026002508E038460C
:100D5000FFF7CAFF0644042000F0BBFA681CC5B2C6
:100D6000A542F4DBB6FBF4F080B2BDE8F0812DE9DA
:100D7000F04107460C460026002508E03846FFF7FC
:100D8000C9FF0644042000F0A4FA681CC5B2A542BD
:100D9000F4DBB6FBF4F080B2BDE8F0812DE9F84F4A
:100DA0000446894649462046FFF7CAFF009000984E
:100DB00001F032FC834601F0E3FB07464FF0663258
:100DC0001C4B01F0DFFA054601F0AAFA82461A49E7
:100DD000504601F035FC054601F0FEFB80B2BDE84F
:100DE000F88F2DE9F84F0446894649462046FFF71B
:100DF000BEFF0090009801F00FFC834601F0C0FB9D
:100E000007464FF066320B4B01F0BCFA054601F085
:100E100087FA82460949504601F012FC054601F066
:100E2000DBFB80B2BDE8F88F0008014000240140E0
:100E30000028014066664A3F00401C4600007A4494
:100E400070B50546002405E0601CC4B2C82C01DD65
:100E5000002070BD0221334801F0EDF90028F3D0E5
:100E60002946304801F094F9002405E0601CC4B222
:100E7000C82C01DD0020ECE701212A4801F0DBF954
:100E80000028F3D0274801F085F9E2E708B50121F1
:100E9000082000F0F5FD0121880300F0FEFD4FF46D
:100EA0007040ADF8000018208DF8030003208DF885
:100EB000020069461C4800F027FB4FF460411A48C5
:100EC00000F0CFFB0020194908804FF48270488061
:100ED000002088800220C8800120088140024881CB
:100EE00000208881C881072008820E4801F07AF826
:100EF00001210C4801F01BF9FF20FFF7A1FF08BDFD
:100F0000084909884FF6C7721140064A11801146F8
:100F10000988014311801146098841F04001118080
:100F20007047000000380040000C0140EC01002038
:100F300000B587B00121182000F0A2FDC020ADF857
:100F4000180010208DF81B0003208DF81A0006A948
:100F5000B74800F0D9FA4FF40060ADF81800482007
:100F60008DF81B0006A9B34800F0CEFA4FF40061DB
:100F7000B04800F076FBFFF789FF0021AE4801F092
:100F8000D6F80020ADF804004FF48270ADF80600EA
:100F90000020ADF80800ADF80A00ADF80C004FF4E1
:100FA0000070ADF80E000020ADF81000ADF8120092
:100FB0000720ADF8140001A99F4801F013F80020A4
:100FC0009E49086001209E49C1F89C0107B000BD00
:100FD0002DE9F04107460D46164600209749091DA8
:100FE00008603846FFF72CFF00F0FF08002405E0FA
:100FF000FF20FFF725FF2855601CC4B2B442F7DB81
:1010000001208E49091D08604046BDE8F0812DE9A8
:10101000F04107460C46154600208849091D086026
:101020003846FFF70DFF00F0FF08002605E014F832
:10103000010BFFF705FF701CC6B2AE42F7DB0120C3
:101040007E49091D08604046BDE8F0811CB57DA1C0
:1010500003C9CDE900010020FFF752FF05226946D0
:101060003020FFF7D4FF052269461020FFF7B0FFBC
:10107000002406E01DF80400A52800D003E0601C51
:10108000C4B2052CF6DB00BF052C01D001201CBD2D
:101090000020FCE770B505460C4600260020674995
:1010A000091D08602846FFF7CBFEC6B22046FFF7B1
:1010B000C7FE01206249C1F89C01304670BD70B581
:1010C0000446002500205D49091D08602046FFF701
:1010D000B7FEFF20FFF7B4FEC5B201205849C1F8A2
:1010E0009C01284670BD70B505460E4600241020B0
:1010F000FFF706FF00205149086032462946A0202C
:10110000FFF785FF01204E49C1F8980100BF4F4805
:1011100000680028FBD10720FFF7D1FF04462146D5
:101120002720FFF7B7FF04F0100028B1FF21E120CE
:10113000FFF7B0FF102070BD04F0200008B12020A0
:10114000F9E7FF20F7E770B504460D4600260020BA
:10115000FFF7D6FE00BF3D4800680028FBD10720FE
:10116000FFF7ADFF064631462720FFF793FF06F055
:10117000400050B12A4621466120FFF729FFFF2198
:10118000E220FFF787FF002070BD0120FCE710B5CB
:1011900000202A49086005222D492A20FFF737FF41
:1011A00001212120FFF776FF01212220FFF772FFA6
:1011B00028212520FFF76EFF20213120FFF76AFF4D
:1011C0000F212620FFF766FF0F212020FFF762FF87
:1011D00001201B49C1F8980110BD10B50020174926
:1011E000086005221B493020FFF711FF052218492E
:1011F0002A20FFF70CFF01212120FFF74BFF0121DF
:101200002220FFF747FF1A212420FFF743FF282160
:101210002520FFF73FFF0F212620FFF73BFF0E2180
:101220002020FFF737FF01200549C1F8980110BDC4
:10123000000C01400010014000380040988121421C
:1012400000802142A5A5A5A5A50000002C012242F1
:10125000F52F0008F02F000810B56FF0040000F023
:10126000D4F82E4800682E49B0FBF1F02D490870E3
:101270000846007800EB4001C1EBC0104FF6FF714B
:1012800001EAC0002849088010BD0146254A1278AD
:101290004A434FF0E0235A6100229A611A461269CC
:1012A00042F001021A6100BF4FF0E022106900F025
:1012B00001021AB100F48032002AF5D04FF0E0228A
:1012C000126922F001024FF0E0231A6100229A61B4
:1012D00070470146144A12884A434FF0E0235A618E
:1012E00000229A611A46126942F001021A6100BF97
:1012F0004FF0E022106900F001021AB100F48032D0
:10130000002AF5D04FF0E022126922F001024FF0DE
:10131000E0231A6100229A6170470000000000205B
:1013200000127A00D4010020D6010020094880472D
:1013300009480047FEE7FEE7FEE7FEE7FEE7FEE7B7
:10134000FEE7FEE7FEE7FEE704480549054A064BCF
:10135000704700002B0600083101000860020020E1
:10136000600800206004002060040020314901432F
:10137000314A1160704770B5002100230F22C478F4
:1013800004B32D4C246804F4E064C4F5E064210A3D
:10139000C1F10403CA40447804FA03F1847814408C
:1013A00021430901254C0678A155047804F01F0556
:1013B0000124AC4005786D11AD0005F1E025C5F8BC
:1013C000004109E0047804F01F050124AC401C4DE5
:1013D0000678761145F8264070BD1A4A0A40024345
:1013E000154B1B1F1A60704739B1134A121D126842
:1013F0000243114B1B1D1A6006E00F4A121D1268B2
:1014000082430D4B1B1D1A607047042808D14FF012
:10141000E021096941F004014FF0E022116107E089
:101420004FF0E021096921F004014FF0E022116141
:10143000704700000000FA050CED00E000E400E059
:1014400080E100E080FFFF1F10B50446CC488442D5
:1014500008D10121042000F02DFB0021042000F020
:1014600029FB46E0C748844208D10121082000F04A
:1014700021FB0021082000F01DFB3AE0C248844215
:1014800008D10121102000F015FB0021102000F0F0
:1014900011FB2EE0BD48844208D10121202000F03C
:1014A00009FB0021202000F005FB22E0B84884421F
:1014B00008D10121402000F0FDFA0021402000F079
:1014C000F9FA16E0B348844208D10121802000F0E7
:1014D000F1FA0021802000F0EDFA0AE0AE488442E3
:1014E00007D10121801500F0E5FA0021A01500F0D8
:1014F000E1FA10BD10B50121084600F0DBFA002129
:10150000012000F0D7FA10BD2DE9F0410246002578
:101510000026002000230024002791F803C00CF0CF
:101520000F0591F803C00CF0100CBCF1000F03D0B4
:1015300091F802C04CEA050591F800C0BCF1000F1B
:1015400031D0146800202BE04FF0010C0CFA00F3AE
:10155000B1F800C00CEA03069E4220D183004FF090
:101560000F0C0CFA03F7BC4305FA03FC4CEA040425
:1015700091F803C0BCF1280F06D14FF0010C0CFA12
:1015800000FCC2F814C00AE091F803C0BCF1480F97
:1015900005D14FF0010C0CFA00FCC2F810C0401C41
:1015A0000828D1D31460B1F800C0BCF1FF0F34DDBE
:1015B000546800202EE000F1080C4FF0010808FAF2
:1015C0000CF3B1F800C00CEA03069E4221D183005F
:1015D0004FF00F0C0CFA03F7BC4305FA03FC4CEA7E
:1015E000040491F803C0BCF1280F05D100F1080CE8
:1015F00008FA0CF8C2F8148091F803C0BCF1480F47
:1016000007D100F1080C4FF0010808FA0CF8C2F8F5
:101610001080401C0828CED35460BDE8F0814FF6FE
:10162000FF710180022181700421C1707047024660
:10163000002093680B400BB1012000E000207047B0
:101640000146886880B2704702460020D3680B408C
:101650000BB1012000E0002070470146C86880B24D
:10166000704701617047416170470AB1016100E054
:1016700041617047C16070474FF480320A43826114
:101680008161826182698269704702460020434B12
:1016900018684FF68073184040EA021008433F4B29
:1016A000186070473E49C8617047F0B50A4600238C
:1016B00000240021002500F00046B6F1004F02D1C1
:1016C000364EF16901E0354E7168C0F3034583B2CF
:1016D00000F44016B6F5401F08D121F070612F4E7E
:1016E000766826F070662D4F7E6012E000F480165A
:1016F000B6F5801F06D1032606FA05F4A14341F092
:10170000706106E0460D360103FA06F6B14341F07A
:10171000706122B1460D360103FA06F6314300F03E
:101720000046B6F1004F02D11C4EF16101E01B4EA4
:101730007160F0BD30B500228B071C0F0F2303FA38
:1017400004F2164B08338C1053F824309343134C97
:1017500008348D1044F8253023468C1053F824307B
:101760008C07240F00FA04F423430C4C08348D102A
:1017700044F8253030BD0A49DC310860704700006C
:1017800000080140000C014000100140001401401D
:1017900000180140001C01400020014000000140F1
:1017A00000002042DF48006840F00100DD49086089
:1017B00008464068DC490840DA4948600846006845
:1017C000DA490840D74908600846006820F48020BC
:1017D00008600846406820F4FE0048604FF41F008F
:1017E00088607047CF49096821F48031CD4A116083
:1017F0001146096821F480211160B0F5803F03D0C3
:10180000B0F5802F0ED106E0C649096841F4803159
:10181000C44A116007E0C349096841F4A021C14AE4
:10182000116000E000BF00BF704710B50146002204
:10183000002300204A11012A02D1BA4C236806E095
:10184000022A02D1B74C236A01E0B64C636A01F068
:101850001F02012494401C400CB1012000E0002034
:1018600010BD38B5002000900024002500BF3120B5
:10187000FFF7DBFF05460098401C00900098B0F58C
:10188000A06F01D0002DF2D03120FFF7CEFF08B1BC
:10189000012400E00024204638BD01460020A14A72
:1018A000106820F0F80040EAC10010607047A049BD
:1018B00008607047024600209A4B586820F47C105C
:1018C00042EA01031843974B5860704798490866ED
:1018D000704701460020934A506820F003000843F7
:1018E000506070478F48406800F00C007047014618
:1018F00000208C4A506820F0F00008435060704788
:1019000001460020874A506820F4E0600843506098
:10191000704701460020834A506820F4605040EA36
:10192000C1005060704729B17E4A527A02437D4B14
:101930005A7204E07B4A527A82437A4B5A72704759
:101940007B49D8310860704701460020754A5068CD
:1019500020F440400843506070470021714A203213
:101960001170704A82F82010012802D004280AD190
:1019700004E001216B4A2032117005E00521694A1B
:101980002032117000E000BF00BF70476949086055
:1019900070476449096A0143624A116270476549A8
:1019A00044390860704730B500210022002400232C
:1019B0005C4D6D6805F00C0121B1042905D00829A2
:1019C00023D105E05C4D056022E05B4D05601FE022
:1019D000544D6D6805F47012524D6D6805F48034F5
:1019E000022505EB92421CB9544D554305600BE0AE
:1019F0004C4D6D6805F400351DB1504D55430560E3
:101A000002E04D4D5543056002E04B4D056000BFBF
:101A100000BF444D6D6805F0F0010909484D6B5C4D
:101A20000568DD4045603F4D6D6805F4E061090AD9
:101A3000434D6B5C4568DD4085603A4D6D6805F44B
:101A40006051C90A3E4D6B5C4568DD40C560354D4F
:101A50006D6805F44041890B3A4D6B5CC568B5FB78
:101A6000F3F5056130BD29B12E4A526902432D4B71
:101A70005A6104E02B4A526982432A4B5A617047EB
:101A800029B1284A92690243264B9A6104E0254A0B
:101A900092698243234B9A61704729B1214AD269E6
:101AA0000243204BDA6104E01E4AD26982431D4B97
:101AB000DA61704729B11B4AD2680243194BDA60D8
:101AC00004E0184AD2688243164BDA60704729B1A5
:101AD000144A12690243134B1A6104E0114A126955
:101AE0008243104B1A6170471249403908607047B1
:101AF0000F49C86470470B49C87170470948406A6C
:101B000040F0807007494862704701460020054A4E
:101B100092680A400AB1012000E0002070470149A4
:101B200088727047001002400000FFF8FFFFF6FEC9
:101B3000000042428004424200127A0000093D0047
:101B4000D8010020E801002010B50446FA4884427C
:101B500008D101214015FFF7ADFF00216015FFF707
:101B6000A9FF17E0F548844208D101210015FFF7CD
:101B7000A1FF00212015FFF79DFF0BE0F0488442F4
:101B800008D10121C803FFF795FF00214FF4004061
:101B9000FFF790FF10BD30B50246002000235068CB
:101BA000E84C20400D790C6844EA0524204350603D
:101BB0009068E54C2040D1E902542C434D7944EA29
:101BC000450420439060D06A20F470000C7C641EB1
:101BD000E4B2234340EA0350D06230BD00210160EB
:101BE000017141718160C16001210174704721B1AF
:101BF000826842F00102826003E0826822F0010202
:101C00008260704721B1826842F48072826003E092
:101C1000826822F480728260704710B50023CBB2D4
:101C20001AB144681C43446002E044689C43446029
:101C300010BD816841F008018160704701460020B5
:101C40008A6802F008020AB1012000E00020704713
:101C5000816841F0040181607047014600208A6874
:101C600002F004020AB1012000E00020704721B117
:101C7000826842F4A002826003E0826822F4A0023B
:101C800082607047014600208A6802F480020AB12F
:101C9000012000E00020704710B50A460021002313
:101CA000416821F46041531E41EA4331416010BD57
:101CB00021B1426842F40062426003E0426822F4CB
:101CC000006242607047F0B504460D4600200021D6
:101CD000092D11DDE068A5F10A0606EB4607072687
:101CE00006FA07F18843A5F10A0606EB460603FA51
:101CF00006F10843E0600CE0206905EB4507072684
:101D000006FA07F1884305EB450603FA06F1084396
:101D10002061072A0FDA606B561E06EB86071F2626
:101D200006FA07F18843561E06EB860605FA06F109
:101D30000843606322E00D2A0FDA206BD61F06EB02
:101D400086071F2606FA07F18843D61F06EB86068C
:101D500005FA06F10843206310E0E06AA2F10D06DF
:101D600006EB86071F2606FA07F18843A2F10D0647
:101D700006EB860605FA06F10843E062F0BD21B1E4
:101D8000826842F48012826003E0826822F480124A
:101D9000826070470146C86C80B2704766484C301C
:101DA0000068704721B1426842F48062426003E0FB
:101DB000426822F480624260704721B1426842F476
:101DC0008052426003E0426822F4805242607047D1
:101DD0000A460021816821F4E04111438160704787
:101DE00021B1826842F40042826003E0826822F4FA
:101DF00000428260704721B1826842F40212826020
:101E000003E0826822F402128260704701460020DB
:101E10008A6802F400120AB1012000E00020704735
:101E2000F0B504461546002000220026092911DDE0
:101E3000E068A1F10A0707EB470C072707FA0CF245
:101E40009043A1F10A0707EB470703FA07F2104393
:101E5000E0600CE0206901EB410C072707FA0CF267
:101E6000904301EB410703FA07F210432061A06B96
:101E7000C0F30156EF1C06F1010CA7EB0C0707EBB2
:101E8000870C1F2707FA0CF29043EF1C06F1010C98
:101E9000A7EB0C0707EB870701FA07F21043A063D3
:101EA000F0BD10B50A4600210023816B21F44011DA
:101EB000531E41EA0351816310BD08B5002300930E
:101EC0000090009B0B440093009B1A6008BD08B56E
:101ED000024600200090009201F12800009B184467
:101EE00000900098006880B208BD0A460021416851
:101EF000164B19401143416070474162826270473E
:101F00000A460021416821F01F01114341607047DA
:101F100040B109490831096841F40001064A083214
:101F2000116007E004490831096821F40001024A00
:101F30000832116070470000002401400028014071
:101F4000003C0140FFFEF0FFFDF7F1FFFFFD3FFF0A
:101F50000246002013680B400BB1012000E0002076
:101F60007047CA430260704770B5024600200023E4
:101F700000240B125568CEB205EA060415681D4010
:101F800015B10CB1012000E0002070BD00220A1242
:101F9000D34303607047000010B50446BE48844236
:101FA00008D101218014FFF785FD0021A014FFF75F
:101FB00081FD16E0B948844208D101210014FFF7E1
:101FC00086FD00212014FFF782FD0AE0B448844218
:101FD00007D10121C013FFF77AFD0021E013FFF7BD
:101FE00076FD10BD10B50022028802F441520B8824
:101FF0004C8823438C882343CC8823430C89234378
:102000004C8923438C892343CC8923431A43028080
:10201000838B4FF2FF74234083830B8A038210BDAE
:102020002DE9F04F85B005460C464FF00009022718
:102030004FF000084FF0010B0026B246A88B4FF27C
:1020400040010840A88302202884B5F81C90A068AD
:10205000022801D100BF38E0A08810B94FF0010B71
:1020600001E04FF0020B8D48854200D100E000BF37
:102070006846FFF798FCDDF800A0E088B0F5007F27
:102080000AD14FEA1A2000EB80004000A168B0FBA3
:10209000F1F0401D86B20BE04FEA4B10BAFBF0F0B6
:1020A00000EB80004000A168B0FBF1F0401D86B25B
:1020B0000A20B6FBF0F606F00108A6EB0800C0F314
:1020C0004F074FF6FF7000EA0828022F01DBFF2FB1
:1020D00002DD02274FF00008E08840EA080038439C
:1020E0002884A088A189084361880843218808437F
:1020F00040F4006040EA0909A5F81C9005B0BDE86D
:10210000F08F0021018041808180C1800181418167
:102110008181C181072101827047002101804180B6
:102120008180C1800221816000218181704721B1BD
:10213000028842F04002028004E002884FF6BF733A
:102140001A400280704721B1828B42F48062828300
:1021500004E0828B4FF6FF331A408283704730B51C
:10216000002400230C110125A540ABB21AB18588CB
:102170001D43858002E085889D43858030BD1AB16E
:1021800083880B43838002E083888B43838070477E
:10219000818170470146888970474FF6FF629142FE
:1021A00004D0028842F48072028004E002884FF674
:1021B000FF631A400280704721B1828842F0040216
:1021C000828004E082884FF6FB731A408280704759
:1021D00002884FF2FF731A40028002880A4302808D
:1021E0007047018841F480510180704721B1028815
:1021F00042F40052028004E002884DF6FF731A4058
:102200000280704702460020012901D0108B00E0B7
:10221000908A70470146088A7047B1F5804F04D113
:10222000028842F48042028004E002884BF6FF7389
:102230001A40028070470246002013890B400BB100
:10224000012000E000207047CA4302817047F0B5CA
:102250000246002000240023002501F00F0701267C
:10226000BE40B4B20B1101269E40B3B2968806EA76
:1022700003051689264016B10DB1012000E00020AB
:10228000F0BD10B5002201F00F040123A3409AB263
:10229000D343038110BD00000030014000380040EE
:1022A000003C0040704770477047754600F02CF8BE
:1022B000AE4605006946534620F00700854618B033
:1022C00020B5FFF741F8BDE820404FF000064FF081
:1022D00000074FF000084FF0000B21F00701AC465B
:1022E000ACE8C009ACE8C009ACE8C009ACE8C0097A
:1022F0008D46704710B50446AFF300802046BDE818
:102300001040FDF77CBF000000487047000200202D
:1023100001491820ABBEFEE726000200704700000E
:1023200021F00042A2F16052B2F5801F01F000439B
:1023300028BFD2F17F6C0BD95FEA001C43EAC202CE
:1023400042EB507018BF704728BF20F00100704763
:10235000B2F5801FBCBF184670474FEA410C1CF510
:10236000001F02D2084600F032BA70B500F0B4F88F
:1023700000000089FFF7F6BF4FF00040A0F5800095
:1023800070470000DFF848C170B51CEA111E1EBF7F
:102390001CEA13159EEA0C0F95EA0C0F00F06F80F3
:1023A00081EA030423EA4C134EEAD47E21EA4C115D
:1023B00041F4801143F48013AE44A1FB024CA0FB16
:1023C0000365AEF17F7E361955EB0C05A1FB034C7E
:1023D0004CF10003A0FB021C16EB0C06654153F107
:1023E0000003094218BF46F0010613F4007F0BD129
:1023F0004FEA03314FEA0530340341EA155140EA10
:1024000016506FF003020AE04FEAC3214FEAC520DD
:10241000F40241EA555140EA56506FF0020202EBD5
:102420002E4201EB025585EACE710AD05FEA440CD8
:1024300018BF24F0004450F1000041F1000120EAEF
:10244000D47040F2FE7C624500D270BDA84214BF39
:102450004FF080444FF04044002E08BF0024BEF1EE
:10246000806FA8BFA1F1C041BDE8704080F28280BA
:102470004FF0000001F1C04101F0004170479EEAB9
:102480000C0F0CEA131518BF95EA0C0F06D04FF08D
:10249000000081EA030E0EF0004170BD00F01CF850
:1024A0008900013E00F007B800F009B84FEA430C7C
:1024B0005FEA5C5C08D081EA030100F05BB84FEA98
:1024C000410C5FEA5C5CF6D14FF0000001497047B7
:1024D0000000FF070000F87F0EF1020E2EF0030E41
:1024E0005EF8046B364205D4012A43EB030515F56B
:1024F000001F12D8012841EB010C1CF5001F0CD85D
:102500000ED14FEAD17C15F5001F0CEB4C0C0CF1F1
:10251000020C08BF4CEBD37C04E04FF0080C01E048
:102520004FEAD37C0CEB4C0526FA05F606F00706BD
:10253000B6F1040C06D20EEB860CBDE870404CF0F0
:10254000010C6047DFE80CF0090B02024FF000417C
:102550004FF00000A1F5002170BD1946104601287A
:1025600051EB010418BFD4F5001484BF002001F022
:10257000004170BD0808A0F500114FEA3101704715
:1025800043004FEAD30C4FEA3C0C43401FBF4007C7
:102590000CF1605113F0FE4F70471CF0006F03D137
:1025A00000200CF0004170470CF0004343EA5070EB
:1025B00010B540EACC0000F0C4F800BF0000009263
:1025C0004FEA0001FFF7D6BF4FF000414FF0000087
:1025D000A1F5002170470000C10DD1F19E0206DB7C
:1025E0004FEA002343F0004323FA02F07047004211
:1025F00007D54FEA4001B1F1FE4F02D24FF0000083
:10260000704710B500F09DF8499224800020704773
:102610006FEA200070470000B0FA80F310FA03F26E
:10262000C3F19D030AD0D90501EB1220530638BF30
:10263000704700F1010008BF20F001007047000062
:102640004FF47F0C1CEAD0121EBF1CEAD11392EA91
:102650000C0F93EA0C0F00F0478090EA010F48BF7F
:1026600042F480724FF0004C4CEA00204CEA012109
:1026700002EB0302A0FB0113A2F50002002918BF20
:1026800043F001035B0028BF4FEA330342EB2242D1
:102690005FEA132C4CEBC2502EBFBCEB436FB2F57C
:1026A0007C0F70474FEA036CBCF1004F08BF20F06D
:1026B0000100B2F57C0F38BF70470BD582F0FF02E6
:1026C00012F5803FC8BF704700F1C040D8BF00F08E
:1026D0000040704700F5000C5FEA4C0C48BF7047A3
:1026E000B0F1C04000F073B890EA010F0CEAD113CA
:1026F00048BF42F48072624538BF634504D280EA25
:10270000010000F00040704710B500F01AF800BF5B
:102710008900013E00F007B800F009B85FEA410CFB
:102720005FEA1C6C08D080EA010000F050B85FEA54
:10273000400C5FEA1C6CF6D14FF00040A0F5800021
:1027400070470EF1020E2EF0030E5EF8044B244289
:1027500004D44FEA4102B2F17F4F11D84FEA40034F
:10276000B3F17F4F0CD80ED14FEAD07CB2F17F4F3E
:102770000CEB4C0C0CF1020C08BF4CEBD17C04E0D0
:102780004FF0080C01E04FEAD17C0CEB4C0324FA2B
:1027900003F404F00704B4F1040C06D20EEB840C2D
:1027A000BDE810404CF0010C6047DFE80CF0070872
:1027B00002024FF00040A0F5800010BD0846420024
:1027C00018BFD2F1807288BF00F0004010BDFF2119
:1027D00041EAD050C0057047000000000000000032
:1027E000002F000000000700070000147F147F1472
:1027F00000242A7F2A1200626408132300364955F8
:10280000225000000503000000001C2241000000CF
:1028100041221C000014083E08140008083E080865
:10282000000000A0600000080808080800006060C0
:102830000000002010080402003E5149453E0000FF
:10284000427F4000004261514946002141454B31E1
:10285000001814127F10002745454539003C4A49AD
:10286000493000017109050300364949493600061F
:102870004949291E00003636000000005636000087
:102880000008142241000014141414140000412202
:10289000140800020151090600324959513E007CDA
:1028A0001211127C007F49494936003E41414122C4
:1028B000007F4141221C007F49494941007F0909AD
:1028C0000901003E4149497A007F0808087F00005D
:1028D000417F4100002040413F01007F0814224118
:1028E000007F40404040007F020C027F007F0408D0
:1028F000107F003E4141413E007F09090906003E2C
:102900004151215E007F0919294600464949493154
:102910000001017F0101003F4040403F001F204077
:10292000201F003F4038403F006314081463000735
:102930000870080700615149454300007F4141008C
:1029400000552A552A55000041417F00000402012C
:10295000020400404040404000000102040000200A
:1029600054545478007F4844443800384444442048
:1029700000384444487F00385454541800087E09F5
:1029800001020018A4A4A47C007F080404780000BD
:10299000447D4000004080847D00007F102844007A
:1029A0000000417F4000007C04180478007C08048B
:1029B000047800384444443800FC242424180018C7
:1029C000242418FC007C08040408004854545420B3
:1029D00000043F444020003C4040207C001C20403C
:1029E000201C003C4030403C004428102844001C7F
:1029F000A0A0A07C004464544C4414141414141477
:102A000000000000000000000000000000000000C6
:102A1000000000F80000000000000033300000005B
:102A200000100C06100C0600000000000000000062
:102A300040C07840C0784000043F04043F040400D4
:102A4000007088FC08300000001820FF211E0000E4
:102A5000F008F000E018000000211C031E211E00F9
:102A600000F00888700000001E212324192721107F
:102A700010160E0000000000000000000000000022
:102A8000000000E0180402000000000718204000C9
:102A900000020418E00000000040201807000000B9
:102AA000404080F0804040000202010F010202001D
:102AB000000000F0000000000101011F0101010001
:102AC000000000000000000080B070000000000066
:102AD00000000000000000000001010101010101EF
:102AE0000000000000000000003030000000000086
:102AF000000000008060180400601806010000005B
:102B000000E010080810E000000F102020100F0057
:102B1000001010F8000000000020203F20200000DE
:102B20000070080808887000003028242221300036
:102B300000300888884830000018202020110E003E
:102B40000000C02010F8000000070424243F2400E7
:102B500000F80888880808000019212020110E00BC
:102B600000E0108888180000000F112020110E00CE
:102B700000380808C83808000000003F00000000C6
:102B80000070880808887000001C222121221C0087
:102B900000E010080810E0000000312222110F00B0
:102BA000000000C0C0000000000000303000000045
:102BB00000000080000000000000806000000000B5
:102BC00000008040201008000001020408102000CE
:102BD0004040404040404000040404040404040019
:102BE00000081020408000000020100804020100AE
:102BF000007048080808F0000000003036010000AE
:102C0000C030C828E810E0000718272423140B0060
:102C10000000C038E0000000203C230202273820DA
:102C200008F8888888700000203F202020110E00BE
:102C3000C0300808080838000718202020100800B5
:102C400008F808080810E000203F202020100F009E
:102C500008F88888E8081000203F2020232018006A
:102C600008F88888E8081000203F200003000000D2
:102C7000C03008080838000007182020221E020073
:102C800008F808000008F808203F210101213F2032
:102C9000000808F8080800000020203F202000005D
:102CA00000000808F8080800C08080807F0000004D
:102CB00008F888C028180800203F20012638200086
:102CC00008F8080000000000203F202020203000ED
:102CD00008F8F800F8F80800203F003F003F200007
:102CE00008F830C00008F808203F200007183F000F
:102CF000E01008080810E0000F10202020100F003E
:102D000008F808080808F000203F21010101000030
:102D1000E01008080810E0000F18242438504F0075
:102D200008F8888888887000203F2000030C302035
:102D300000708808080838000038202121221C0073
:102D4000180808F8080818000000203F20000000BC
:102D500008F808000008F808001F202020201F00A5
:102D60000878880000C83808000007380E01000005
:102D7000F80800F80008F800033C0700073C0300CF
:102D8000081868808068180820302C03032C302035
:102D90000838C800C83808000000203F20000000A4
:102DA00010080808C83808002038262120201800FC
:102DB000000000FE020202000000007F40404000D0
:102DC000000C30C000000000000000010638C00008
:102DD00000020202FE000000004040407F000000B0
:102DE00000000402020204000000000000000000D5
:102DF00000000000000000008080808080808080D3
:102E000000020204000000000000000000000000BA
:102E100000008080808000000019242222223F20B0
:102E200008F8008080000000003F112020110E00F3
:102E30000000008080800000000E11202020110082
:102E4000000000808088F800000E112020103F2034
:102E50000000808080800000001F222222221300B8
:102E6000008080F0888888180020203F2020000003
:102E70000000808080808000006B949494936000B8
:102E800008F8008080800000203F210000203F20C3
:102E900000809898000000000020203F20200000C3
:102EA000000000809898000000C08080807F0000B3
:102EB00008F8000080808000203F24022D30200090
:102EC000000808F8000000000020203F202000003B
:102ED0008080808080808000203F20003F20003F55
:102EE0008080008080800000203F210000203F2063
:102EF0000000808080800000001F202020201F0014
:102F0000808000808000000080FFA12020110E0042
:102F10000000008080808000000E112020A0FF8033
:102F2000808080008080800020203F2120000100E0
:102F30000000808080808000003324242424190035
:102F4000008080E0808000000000001F2020000042
:102F50008080000000808000001F202020103F2083
:102F6000808080000080808000010E300806010013
:102F700080800080008080800F300C030C300F00B8
:102F800000808000808080000020312E0E312000E3
:102F9000808080000080808080818E701806010013
:102FA00000808080808080000021302C2221300031
:102FB00000000000807C020200000000003F404052
:102FC00000000000FF00000000000000FF00000003
:102FD0000002027C800000000040403F0000000032
:102FE00000060101020204040000000000000000CD
:102FF0003443101001344310100100001C3000084D
:1030000000000020EC0100006C010008D430000832
:10301000EC01002074060000C80100081184A24AD7
:1030200004580F0102030406070809202022222267
:10303000E2040311202037804020100C031B3F4086
:10304000010A107820000F11809E9292929EE080DB
:103050009EB2D2929E8010080808F4949292F100D9
:10306000081101F2929494F808172424A4FEA322D4
:103070002322CC0214FF15080601FF2B01040105D1
:1030800011FF020202180C101010FF10900888881F
:1030900088FF04091060080F100444827F018080BB
:1030A00040432C10284681A03B808201080810E292
:1030B000A2928A8682802051041840807F097EC0B7
:1030C000812D010203040400090006070809020417
:0430D00006080000EE
:0400000508000131BD
:00000001FF
